:0C098E00EF4E6007EF1F70F81E80F5228E
:10094200AD07AC06ED4C600E7F707E0012098EED95
:070952001D70F11C80EE2274
:0509D300D290D2912238
:100959007F017E0012098ED2907F017E0012098EDE
:03096900C2902217
:0809BB00C291120959D29122E8
:0809C300D291120959D29022D1
:10000300C290D2917F017E0012098ED2907F017E31
:100013000012098EC2917F017E0012098EC29022C6
:1008D300C2907F017E0012098EC2917F017E0012B9
:0E08E300098ED2907F017E0012098ED29122E2
:0807D700151DA81DA607151D44
:1007DF00A81DE4F6A81DE6C39408748094805019F0
:1007EF0008E6339291120959A81D08C000E6FF25AB
:0C07FF00E0D000F6A81D0680DB120959AE
:05080B00051D051D2282
:0A05E700151DA81DA607151D151D02
:1005F100A81D08E4F6D291A81DF6A81DE6C394082B
:1006010074809480502C7F017E0012098ED2907FDD
:10061100017E0012098EA81D08C000E6FF25E0D06A
:1006210000F6A291E433A81D0846F6C290A81D0663
:1006310080C8A81D0808E6640170051209BB800383
:080641001209C3A81D08E6FF21
:07064900051D051D051D2222
:10071800151DA81DA6077F017E00120942A81DE627
:1007280054F0F5A0C2A2D2A37F0A7E0012098EC29D
:10073800A37F017E00120942A81DE6C454F0F5A06B
:10074800C2A2D2A37F0A7E0012098EC2A3051D226F
:0F097F007F281207187F0C1207187F060207182F
:10075800151DA81DA6077F017E00120942A81DE6E7
:1007680054F0F5A0D2A2D2A37F0A7E0012098EC24D
:10077800A37F017E00120942A81DE6C454F0F5A02B
:10078800D2A2D2A37F0A7E0012098EC2A3051D221F
:10079800151D151D151DA81DA60308A60208A601EE
:1007A800A81D860308E6FA08E6F91203826019A86C
:1007B8001D8603080806E618860270010614F91259
:0F07C8000382FF12075880D8051D051D051D224D
:10092A0025303364002530366C75002530366C75F9
:08093A000D0A004C75783A002B
:0909B100042900000000012200ED
:0300230002044193
:10044100C0E0C0F0C083C082C0D075D000C000C081
:1004510001C002C003C004C005C006C00730990432
:10046100C299805D75A800859922E52264657005B1
:100471001206B68047AF227E00D3E49F7480F898BD
:10048100503AEF94FF7480948050311208B3AF2238
:1004910012088E1208F1750BFF750C09750D2A757E
:1004A1000E0085220F7B007A0079231200827FCB18
:1004B1001207187B007A007923120798C29875A851
:1004C10090D007D006D005D004D003D002D001D0FF
:0C04D10000D0D0D082D083D0F0D0E03238
:1006B6007C007D147F13120569E48F2C8E2BF52A9E
:1006C600F529750BFF750C09750D2F8F118E108589
:1006D6002A0F85290EFB7A0079231200827F871262
:1006E60007187B007A007923120798750BFF750CA3
:1006F60009750D35852C11852B10852A0F85290E38
:100706007B007A0079231200827B007A007923022B
:020716000810C9
:10084000E4F51C7FFD1209A612097F1209D31209D3
:10085000D812099A7F801207187BFF7A09793D1216
:07086000079875A89080FEC7
:0B09A6007589228F8D759850D28E222B
:0809CB008F993099FDC29922B9
:100810008B088A09890AAB08AA09A90A120382600F
:100820001E7F017E00120942AB08050AE50AAA09EB
:100830007002050914F9120382FF1209CB80D72236
:0C099A007F647E001209427F0002090FFA
:10090F00151DA81DA6071200037F461207D7A81DA5
:0B091F00E6FF1207D71208D3051D22C7
:06065000E51D24FAF51D72
:10065600F81203B300000000E51D2404F8E4F6E5F3
:100666001D2405F8E4F61200037F471207D77F0121
:100676001205E7E51D2405F8A6077F001205E7E544
:100686001D2404F8A6071208D3E51D2405F8E6FE86
:10069600E51D2404F8E6FDEDFFEE3395E0FDFCA82C
:0906A6001D1203A7A81D12039BFD
:0706AF00E51D2406F51D22E4
:10056900151D151DA81DA60408A605151DA81DA65F
:0705790007E51D24FCF51D40
:10058000F81203B3000000007F0112090FE51D24DB
:1005900004F8E6FF12090FA81DC00012039BC00457
:1005A000C005C006C007120650AB07AA06E4F9F85A
:1005B000D007D006D005D004EF2BFFEE3AFEE93D80
:1005C000FDE83CFCD0001203A7E51D2405F8E6FE7B
:1005D00008E6FF1209427F0012090FA81D12039BB3
:0705E000E51D2407F51D22B3
:0509D800D2B2D2B322EF
:10096C007F017E0012098ED2B27F017E0012098EA9
:03097C00C2B222E2
:1008B300C2B2D2B37F017E0012098ED2B27F017E13
:1008C3000012098EC2B37F017E0012098EC2B222CA
:1008F100C2B27F017E0012098EC2B37F017E001257
:0E090100098ED2B27F017E0012098ED2B3227F
:02088E008F08D1
:10089000E4F509C3E5099408748094805012E508D2
:1008A0003392B312096CE50825E0F508050980E3E9
:0308B00002096CCE
:030000000204DD1A
:0C04DD00787FE4F6D8FD75812C02052420
:10038200BB010689828A83E0225002E722BBFE0279
:09039200E32289828A83E49322AC
:0C039B00E6FC08E6FD08E6FE08E6FF228E
:0C03A700ECF608EDF608EEF608EFF62282
:1003B300D083D082E493F608740193F60874029311
:0903C300F608740393F674047348
:10002600E517240BF8E60517227808300702780B47
:10003600E475F00112040B0203822000EB7F2ED23E
:10004600008018EF540F2490D43440D4FF30040BB2
:10005600EF24BFB41A0050032461FFE518600215AF
:1000660018051BE51B7002051A30070D7808E475A4
:10007600F00112040BEF0203F90208677403D207BA
:100086008003E4C207F5178B088A09890AE4F51884
:10009600F51AF51BE51860077F2012006180F575DB
:1000A60019FFC201C200C202C203C205C206C208CB
:1000B60012002FFF700D3007057F00120072AF1B74
:1000C600AE1A22B4255FC2D5C20412002FFF24D077
:1000D600B40A00501A75F00A781830D50508B6FF2C
:1000E6000106C6A426F620D5047002D20380D924C0
:1000F600CFB41A00EF5004C2E5D204020272D20154
:1001060080C6D20080C0D20280BCD2D580BAD205C9
:1001160080B47F201200612002077401B5180040E8
:10012600F1120026FF12006102009AD208D2068060
:1001360095120026FB120026FA120026F94A4B7089
:100146000679437A037BFF20022EE518602A7E009B
:100156008E827583001203CC60060EEE651970F070
:10016600C2D5EBC0E0EAC0E0E9C0E0EE1202B9D0C9
:10017600E0F9D0E0FAD0E0FB120382FF60AAEBC000
:10018600E0EAC0E0E9C0E0120061D0E02401F9D065
:10019600E03400FAD0E0FBE5190460DCD519D9801B
:1001A600877BFF7A0279B5D202809C79108002792A
:1001B60008C206C2088008D2D5790A8004790AC224
:1001C600D5E519047002F519E4FAFDFEFF120026C2
:1001D600FC7B08200113120026FD7B1030000A125A
:1001E6000026FE120026FF7B20EC3382D592D550E6
:1001F60013C3E43000069FFFE49EFEE42001039D46
:10020600FDE49CFCE4CBF8C201EC700CCFCECDCC67
:10021600E824F8F870F38017C3EF33FFEE33FEEDF2
:1002260033FDEC33FCEB33FB994002FB0FD8E9EBD3
:10023600300105F8D0E0C448B201C0E00AEC4D4EEA
:100246004F78207B0070C2EAB5190040BCC0E012AE
:1002560002BBD0F0D0E0200104C4C0E0C4B201C0AB
:10026600F012004AD0F0D5F0EB02009A12041B01FE
:10027600375301B15801084C01044201B54F01BD85
:0F0286004401BD49011D4301C35501A74601A70E
:100295004501A747036350010C2D01102E01332B97
:1002A500011423013120034C2A00CC480000012B06
:1002B5003F3F3F00790AA2D5200314300509B91044
:1002C500020404B9080104A2D52006025001042045
:1002D50002689202B518005034C0E07F203003193F
:1002E5007F30A20272067205500F120312C202C2BB
:1002F50006C205C2087F30800F300503E9C0E01251
:100305000061300503D0E0F9D0E0B518CC30051711
:100315007F30B9100C1200617F583004077F788058
:1003250003B908031200613002057F2D0200617FC9
:10033500202008F87F2B2006F322920280CF286E1A
:10034500756C6C2900D2011200263001F8C20178C3
:100355001830D50108F60200CC2D5043495812003B
:10036500262403B405004001E490035E9312005275
:0D037500743A120052D2037518040201B14F
:1004E900020840E493A3F8E493A34003F68001F2E1
:1004F90008DFF48029E493A3F85407240CC8C33314
:10050900C4540F4420C8834004F456800146F6DFE2
:10051900E4800B01020408102040809009B1E47EB8
:10052900019360BCA3FF543F30E509541FFEE493D7
:10053900A360010ECF54C025E060A840B8E493A39E
:10054900FAE493A3F8E493A3C8C582C8CAC583CAC9
:10055900F0A3C8C582C8CAC583CADFE9DEE780BE81
:0109BA00003C
:1003CC00BB010CE58229F582E5833AF583E02250E6
:1003DC0006E92582F8E622BBFE06E92582F8E22230
:0D03EC00E58229F582E5833AF583E493224A
:1003F900BB010689828A83F0225002F722BBFE01E3
:02040900F322DC
:10040B00FAE6FB0808E6F925F0F618E6CA3AF622F2
:10041B00D083D082F8E4937012740193700DA3A370
:10042B0093F8740193F5828883E473740293686084
:06043B00EFA3A3A380DF84
:10086700EFB40A07740D120872740A309811A89928
:10087700B8130CC2983098FDA899C298B811F630F1
:0708870099FDC299F59922C9
:00000001FF
